:100000000C945C000C9479000C9479000C947900A9
:100010000C9479000C9479000C9479000C9479007C
:100020000C9479000C9479000C9479000C9479006C
:100030000C9479000C9479000C9479000C9479005C
:100040000C94C8010C9479000C9479000C947900FC
:100050000C9479000C9479000C9479000C9479003C
:100060000C9479000C947900000000002400270013
:100070002A0000000000250028002B0004040404CE
:100080000404040402020202020203030303030342
:10009000010204081020408001020408102001021F
:1000A00004081020000000080002010000030407FB
:1000B000000000000000000011241FBECFEFD8E0B8
:1000C000DEBFCDBF21E0A4E0B1E001C01D92AD30A4
:1000D000B207E1F711E0A0E0B1E0EAE0F6E002C02B
:1000E00005900D92A430B107D9F70E9412020C942A
:1000F00003030C94000090E0FC01EC55FF4F349199
:10010000FC01E057FF4F2491FC01E458FF4FE491BC
:10011000EE2309F43BC0332339F1333091F038F446
:100120003130A9F0323001F584B58F7D12C03730FF
:1001300091F03830A1F03430B9F4809180008F7D97
:1001400003C0809180008F77809380000DC084B5BC
:100150008F7784BD09C08091B0008F7703C08091F4
:10016000B0008F7D8093B000F0E0EE0FFF1FEE58DF
:10017000FF4FA591B4918FB7F894EC91611103C032
:1001800020952E2301C02E2B2C938FBF0895CF9343
:10019000DF9390E0FC01E057FF4F2491FC01E4580D
:1001A000FF4F8491882361F190E0880F991FFC0133
:1001B000E859FF4FC591D491FC01EE58FF4FA5912E
:1001C000B491611109C09FB7F8948881209582236A
:1001D0008883EC912E230BC0623061F49FB7F894B2
:1001E0003881822F809583238883EC912E2B2C934A
:1001F0009FBF06C08FB7F894E8812E2B28838FBF4E
:10020000DF91CF9108951F93CF93DF93182FEB01C8
:1002100061E00E94C700209711F460E004C0CF3F66
:10022000D10539F461E0812FDF91CF911F910C94BA
:100230007B00E12FF0E0EC55FF4FE491E330F9F063
:1002400048F4E130B9F0E230A1F584B5806284BDB4
:10025000C8BD34C0E730E9F0E83019F1E43049F5C1
:1002600080918000806280938000D0938B00C09347
:100270008A0024C084B5806884BDC7BD1FC080913A
:100280008000806880938000D0938900C0938800AC
:1002900015C08091B00080688093B000C093B30017
:1002A0000DC08091B00080628093B000C093B40014
:1002B00005C0C038D1050CF0B5CFAFCFDF91CF91DD
:1002C0001F9108958E3008F08E508770806480935F
:1002D0007C0080917A00806480937A0080917A001B
:1002E00086FDFCCF809178002091790090E0922BE0
:1002F00008950F931F93CF93DF93EC01862F042F64
:10030000122FC43192E0D907ECF061E00E947B002B
:1003100060E0802F0E947B00CE01DD0FAA0BBB0B9B
:100320009C01AD012451324041095109AFEFB0E0C9
:100330000E94C7022BEE31E040E050E00E94A8028C
:10034000B9011FC0CD3E91E0D907CCF460E00E9416
:100350007B0061E0802F0E947B009E01A1E0BFEF47
:100360000E9499022CEE31E040E050E00E94A80289
:10037000CA01B90161507F4F8F4F9F4F02C060E0AB
:1003800070E0812FDF91CF911F910F910C940301A9
:100390001F920F920FB60F9211242F933F938F93BA
:1003A0009F93AF93BF938091090190910A01A0910F
:1003B0000B01B0910C013091080123E0230F2D3780
:1003C00020F40196A11DB11D05C026E8230F029659
:1003D000A11DB11D209308018093090190930A018A
:1003E000A0930B01B0930C01809104019091050141
:1003F000A0910601B09107010196A11DB11D809346
:10040000040190930501A0930601B0930701BF91E9
:10041000AF919F918F913F912F910F900FBE0F90B1
:100420001F901895789484B5826084BD84B58160EE
:1004300084BD85B5826085BD85B5816085BD8091AF
:100440006E00816080936E00109281008091810027
:10045000826080938100809181008160809381001F
:10046000809180008160809380008091B1008460E1
:100470008093B1008091B00081608093B000809142
:100480007A00846080937A0080917A008260809301
:100490007A0080917A00816080937A0080917A005E
:1004A000806880937A001092C10060E08EE00E9424
:1004B000C70060E08FE00E94C70060E082E00E9419
:1004C000C70061E08BE00E94C70061E08AE00E9403
:1004D000C70061E089E00E94C70061E088E00E94F7
:1004E000C70061E087E00E94C70061E086E00E94EB
:1004F000C7008FE00E9462012BE030E048E050E04E
:1005000069E070E00E9479018EE00E9462012AE0B9
:1005100030E046E050E067E070E00E9479012FEFA4
:1005200089EF90E0215080409040E1F700C000004A
:10053000E0CF0E94F402332312F48A1B9B0B0C942D
:10054000A3020E94F402B7FF0895821B930B089543
:10055000052E97FB1EF400940E94BF0257FD07D0A2
:100560000E94D20207FC03D04EF40C94BF025095B7
:100570004095309521953F4F4F4F5F4F089590958F
:100580008095709561957F4F8F4F9F4F08950E9482
:10059000F402A59F900DB49F900DA49F800D911D16
:1005A00011240895A1E21A2EAA1BBB1BFD010DC048
:1005B000AA1FBB1FEE1FFF1FA217B307E407F50713
:1005C00020F0A21BB30BE40BF50B661F771F881FEF
:1005D000991F1A9469F760957095809590959B0185
:1005E000AC01BD01CF010895A29FB001B39FC0012E
:1005F000A39F700D811D1124911DB29F700D811D4F
:0A0600001124911D0895F894FFCF16
:04060A0001000000EB
:00000001FF
